:1000000083168F0190019F0103309B008600DF3033
:100010008500810080309F0083120F3097009F0180
:100020001F1485018601051D18280519152866204D
:10003000851D1D2885191A286F20051E2228051ADE
:100040001F287820851E2728851A24288120061C31
:100050002C28061829288920861C312886182E2845
:100060008E20A01C34284428201D37284428A01D99
:100070003A284428201E3D284428A01E40284E2807
:10008000201F43284E2813281F151F1945281E0816
:10009000950083161E088312960013281F151F193A
:1000A00045281E08950083161E08831296008316A5
:1000B0009F1783129F151F151F194F2812118316A2
:1000C0009F131E0892008312121513289201A0019B
:1000D0008316043092008312A014121508009201B6
:1000E000A001831602309200831220151215080019
:1000F0009201A0018316013092008312201512157F
:1001000008009201A0018316920183122016121595
:1001100008009201A001A016921408009201A0010B
:04012000201708009C
:02400E00502F31
:02401000FC3F73
:00000001FF
